:1000000099C10000B3C10000B1C10000AFC1000040
:10001000ADC10000ABC10000A9C10000A7C1000034
:10002000A5C10000A3C10000A1C100000C94B80D3F
:100030000C94640E9BC1000099C1000097C10000A0
:1000400095C1000093C1000091C100008FC1000064
:100050008DC100008BC1000089C1000057C30000A2
:1000600085C1000083C1000081C100007FC1000084
:100070007DC100003003410072006400750069001A
:100080006E006F00200048006F006F0064006C007D
:100090006F0061006400650072002000420065008E
:1000A00074006100000012034E00690063006F00DD
:1000B00048006F006F006400000004030904090297
:1000C0005F00030100C032080B00020202010009B8
:1000D00004000001020201000524001001042402B2
:1000E000060524060001070582030800FF09040134
:1000F00000020A0000000705040240000107058312
:10010000024000010904020001030000000921115E
:1001100001000122040207058103100001120110F1
:1001200001EF020108EB03686E80010102DC0105AA
:10013000010902A1010901A100850105091901298F
:10014000051500250195057501810295017503814D
:100150000305010930093109381581257F75089596
:10016000038106C0C005010906A101850205071922
:10017000E029E715002501750195088102950175B3
:1001800008810395067508150025650507190029DE
:1001900065810005081901290595057501910295EC
:1001A0000175039103C006C0FF0A000CA10185037D
:1001B0007508150026FF00950F09018102950F09AA
:1001C000029102C0050C0901A1018504150026FF5A
:1001D0000319002AFF03950475108100C005010969
:1001E00080A1018505150026FF00190029FF950152
:1001F00075088100C005010904A1018506050919DA
:10020000012920150025017501952081020501A114
:1002100000093009310933093416008026FF7F7543
:100220001095048102093209351580257F750895DE
:10023000028102C005010939093915012508950215
:1002400075048102C005010904A10185070509198A
:10025000012920150025017501952081020501A1C4
:1002600000093009310933093416008026FF7F75F3
:100270001095048102093209351580257F7508958E
:10028000028102C009390939150125089502750452
:100290008102C005010904A1018508050919012988
:1002A00020150025017501952081020501A1000995
:1002B0003009310933093416008026FF7F75109507
:1002C000048102093209351580257F750895028160
:1002D00002C005010939093915012508950275047F
:1002E0008102C005010904A1018509050919012937
:1002F00020150025017501952081020501A1000945
:100300003009310933093416008026FF7F751095B6
:10031000048102093209351580257F75089502810F
:1003200002C005010939093915012508950275042E
:100330008102C00011241FBECFEFD2E0DEBFCDBFCF
:1003400011E0A0E0B1E0EAECF7E202C005900D9206
:10035000AE33B107D9F711E0AEE3B1E001C01D92B1
:10036000A63FB107E1F773D00C94E31349CEEEE357
:10037000F1E05FB7F894208131812115310519F042
:100380004481411104C05FBF2FEF3FEF11C0828154
:1003900090E0841B910997FF03C06381860F911D34
:1003A000D901A80FB91F2C91415044835FBF30E0A1
:1003B000C9010895EEE3F1E04FB7F894208131814F
:1003C0002115310509F41DC0828190E05481851BFF
:1003D0009109019797FF03C05381850F911DD901A2
:1003E000A80FB91F6C9384819381891308C09281EF
:1003F000911101C0828382818150828302C08F5F0C
:1004000084834FBF089584B7877F84BF88E10FB688
:10041000F89480936000109260000FBE539A5A9A2D
:1004200080E191E00E94D00A1092CA018AB18063F3
:100430008AB98BB180638BB90E94A90D84E085BD18
:100440005F9A579A25982D9A26982E9A089580910A
:10045000CB01807F8093CB011092DB011092DC01F5
:100460002DD4D1DF789410E213B980E191E00E949D
:10047000B51097FD1BC0409124015091250160915A
:10048000260170912701413051056105710511F474
:10049000AFD60CC05C989091CA019C609093CA0141
:1004A0009091C80095FFFCCF8093CE002FB7F894B1
:1004B00080913E0190913F01892B19F0809142017A
:1004C00001C080E02FBF90E0009719F4A89981C087
:1004D00002C15D982091CA0123602093CA01209136
:1004E00011012F702093E9002091E80020FFEECF4A
:1004F0008034910510F08FE390E0F82EC0E0D0E05A
:1005000065C08091240190912501A0912601B091B0
:1005100027012091E80121110CC082309105A1052D
:10052000B10528F08115924CA140B10511F41D9937
:1005300043C08091200180FD0AC0222341F08EE358
:1005400091E015DF8091E80181112DC03EC07FB799
:10055000F89420913E0130913F012115310541F081
:1005600040914201442321F050E01416150624F076
:100570007FBF6FEF7FEF10C08091400190E0841B40
:10058000950B97FF04C040914101840F911DF90123
:10059000E80FF91F60817FBF80E191E00E944D105C
:1005A000882369F293CF81508093E8018091CA013A
:1005B00080638093CA0109C08091CA0180638093DF
:1005C000CA018EE391E0D3DEA1D22196FC1299CF2D
:1005D0007DCFA89A9091CA01892F807309F459C0E0
:1005E000892F82958F708D5F8370282F2295207FB1
:1005F0009F7C922B9093CA0181114BC0E091DD0149
:10060000E6FF15C0E695E695E695E770F0E0EE5159
:10061000FE4F60818EE391E0CDDE8091DD0186FBAF
:10062000882780F99091E801890F8093E8018091F3
:10063000DD0187FD2AC08695869586958770C0E086
:10064000D0E0E82EF12C8EE3C82E81E0D82ECE0C1F
:10065000DF1C09C0F601EC0FFD1FEC55FF4F608158
:100660008EE391E0A7DE2197CE01809590958E15BF
:100670009F0584F38091DD01869586958695877028
:100680009091E801890F8093E8018DED91E070D69B
:100690000AD29091CA01892F837049F081508370EA
:1006A0009C7F982B9093CA01811101C05D9A909113
:1006B000CA01892F8C7079F0892F869586958D5F78
:1006C0008370282F220F220F937F922B9093CA01C1
:1006D000811101C05C9A80E091E00E94E01280E10B
:1006E00091E00E949F100E940C10BECE08950895C4
:1006F00080E091E00E94CB1280E191E00E942810FE
:10070000E2EEF0E080818460808308951F920F9272
:100710000FB60F9211242F933F934F935F938F93B4
:100720009F93AF93BF93EF93FF934091CE0080913F
:10073000ED018430E9F4EEE3F1E02FB7F894808125
:1007400091810097A1F054813381531301C00FC0F0
:100750003281DC01A30FB11D4C93832F8F5F828305
:100760009381891301C0128284818F5F84832FBF9C
:10077000FF91EF91BF91AF919F918F915F914F91B9
:100780003F912F910F900FBE0F901F90189580E111
:1007900091E00E94E31080E091E00C94941180912C
:1007A0000E0190910F01009729F0019790930F018E
:1007B00080930E010895292F332723303105B1F09E
:1007C0004CF42130310509F439C02230310509F0EB
:1007D0003AC007C02132310539F12232310549F1E1
:1007E00032C0EFE5F0E08EEB90E031C09927813028
:1007F000910561F08230910581F0892B21F5EAEBBA
:10080000F0E0E491F0E08AEB90E021C0E6EAF0E06D
:10081000E491F0E086EA90E01AC0E4E7F0E0E491C9
:10082000F0E084E790E013C0E9E0F0E08DE091E0D3
:100830000EC0E4E0F2E08FE291E009C0E2E1F0E016
:100840008DE191E004C0E0E0F0E080E090E0DA01CA
:100850008D939C93CF010895FF920F931F93CF9395
:10086000DF9320E030E050E0640F751FCEE3D1E06D
:100870002CC0FB01E21BF30B31970081FE011FB777
:10088000F894A081B181109709F41CC0828190E096
:10089000F4808F199109019797FF03C0F3808F0DA2
:1008A000911DA80FB91F0C9384819381891308C0EF
:1008B0009281911101C0828382818150828302C022
:1008C0008F5F84831FBF2F5F3F4F241735078CF244
:1008D000DF91CF911F910F91FF900895089504C06B
:1008E00080E091E00E94E0128091DC0187FDF8CF6A
:1008F00008958150813130F4E82FF0E0E55DFE4F3E
:100900008081089580E00895EF92FF921F93CF9326
:10091000DF931F92CDB7DEB7182FE82EF12C21E020
:10092000E21AF1082091DB018091DC01382F3F773A
:100930000E2C02C0359527950A94E2F720FF36C0A9
:10094000812FD7DF882391F18983C9DF1F709091B0
:10095000CB01907F912B9093CB012CEC31E08981DE
:10096000482F50E060E070E0C9010E94DC138091E4
:10097000DC0180688093DC01B2DF81E090E002C09E
:10098000880F991FEA94E2F7809590952091DB01FA
:100990004091DC01342F3F77822393238093DB0146
:1009A0009F77842F8078892B8093DC010F90DF91D3
:1009B000CF911F91FF90EF900895CF938091DB012D
:1009C0002091DC01922F9F77892B31F0C1E08C2F91
:1009D0009BDFCF5FC231D9F7CF910895CF92DF92DD
:1009E000EF92FF920F931F93CF93DF9300D0CDB779
:1009F000DEB77B01932F68017091DC01672F60786F
:100A000009F440C0E091CB01EF70E330B1F0F0E0C9
:100A1000319741E050E002C0440F551FEA95E2F7DC
:100A2000E091DB01F72FFF774E2B5F2B4093DB012B
:100A3000452F4F77462B4093DC018091CB018F707F
:100A400029839A8356DF182FECECF1E0482F50E011
:100A5000BF012981822F9A810E94D3139091CB01EB
:100A60009F70F7019083F601108311828091DC0161
:100A70008F778093DC018091CB01807F8093CB01C5
:100A800081E006C0F7011082F8011182108280E037
:100A90000F900F90DF91CF911F910F91FF90EF90EA
:100AA000DF90CF9008951F93CF93DF9300D000D0B5
:100AB00000D0CDB7DEB713DF8091CB01682F6F7008
:100AC000B1F0807FA1F470E07160AE014F5F5F4FC5
:100AD00081E024D5182F482FBE016F5F7F4F8EE332
:100AE00091E0BADE9091E801910F9093E801809136
:100AF000CB01807F8093CB0126960FB6F894DEBFA2
:100B00000FBECDBFDF91CF911F910895CF936DEDB3
:100B100071E0E1D4882309F48AC087FD70C0813078
:100B2000C1F49091DF019130A1F4D9DEC091DE01D2
:100B30008091CB018F708093CB01B5DFCF70809116
:100B4000CB01807F8C2B8093CB018F7009F06FC01D
:100B50006CC02091CB01922F9F7009F450C099274F
:100B600087FD909522952F7030E02E5F3F4F359591
:100B700027952F5F3F4F8217930709F040C0AFDEE4
:100B8000C091CB018C2F8F70B4DE2C2F22952F704B
:100B90009091DE013091DF01E22FF0E0E453FE4F4F
:100BA0009083E22FEF5FEF704E2F4295407F909140
:100BB000CB019F70942B9093CB018E1769F0F0E0DE
:100BC000E453FE4F30832E5F2295207F9091CB011E
:100BD0009F70922B9093CB012091CB0122952F7087
:100BE00030E090E02817390711F58091DC0180682A
:100BF0008093DC0180E091E0CF910C94E012409171
:100C0000DD01469546954695477062EE71E08EE3AC
:100C100091E022DE8091DD0186958695869587702C
:100C20009091E801890F8093E801CF913CCFCF915B
:100C30000895682F80E191E00E944D108823D9F03B
:100C400080E191E00E949F100E940C105C982FEFB1
:100C500081EE94E0215080409040E1F700C0000018
:100C60005C982FEF81EE94E0215080409040E1F7B6
:100C700000C00000EBCF089580E191E00E94B51024
:100C800097FDFACF0895EF92FF920F931F93CF93A2
:100C9000DF937C0103E411E0C0E0D0E005C0ECDFAD
:100CA000F80181938F012196CE15DF05C4F3DF9102
:100CB000CF911F910F91FF90EF9008952398229864
:100CC0002198249820981092C5011092C401109286
:100CD000C7011092C6011092C9011092C80110926A
:100CE000C301EEE3F1E02FB7F89483E491E0918340
:100CF0008083128280E8838314822FBF1092E801E0
:100D00008DED91E035C3CF93C82FB6DF803239F433
:100D100084E18FDF8C2F8DDF80E1CF918ACF85E159
:100D200088DF8091C301982F9F5F9F778078892B00
:100D30008093C301CF9108959FDF803221F484E135
:100D400078DF80E176CF85E174DF8091C301982F51
:100D50009F5F9F778078892B8093C30108958138A6
:100D600059F018F4803871F405C0823839F08339AD
:100D700049F406C082E007C081E005C082E103C0FB
:100D800083E501C080E0BFCF84E190E07CDF9091FB
:100D90004F0180E020915001820F911D9093C70177
:100DA0008093C6019091510180E020915201820F01
:100DB000911D9093C9018093C801089583E58CBD6E
:100DC0008DB58EB508950DB407FEFDCF08958EBD87
:100DD000FADF8EB50895CF93DF9300D01F92CDB781
:100DE000DEB72B834A836983F2DF6981862FEFDFC9
:100DF0004A81842FECDF2B81822F0F900F900F9070
:100E0000DF91CF91E4CF38DF803259F08091C30178
:100E1000982F9F5F9F778078892B8093C30185E10E
:100E200015C084E106DF20E040E060E080E3D3DF2E
:100E300000DF20E041E060E080E3CDDFFADE20E08B
:100E400042E060E080E3C7DFF4DE80E1F2CE84E0E0
:100E500090E019DF209146014091450160914401E5
:100E600080914301B8DF4FCF209A289AA7DF249AB8
:100E70002C9A219A29982FEF80E792E02150804008
:100E80009040E1F700C000002C982FEF80E792E03F
:100E9000215080409040E1F700C000002398229A42
:100EA00020E040E063E58CEA96DFE3ECF1E080814E
:100EB0008068808382DDEEE3F1E08FB7F8941182E1
:100EC00010821282138214828FBF1092CA018BB1DA
:100ED00080638BB90895962F672F242F492F7BCFDE
:100EE000EF92FF920F931F93CF93DF93C5DE182FDE
:100EF000C3DED82FC1DEC82FBFDE803259F080910B
:100F0000C301982F9F5F9F778078892B8093C301BF
:100F100085E144C0312F20E07901ED0EF11C84E120
:100F200088DEC63419F51BC06091C4017091C501FB
:100F300040E080E2D0DF7DDE6091C4017091C501A8
:100F400040E088E2C8DF75DE8091C4019091C50160
:100F500001969093C5018093C401229602C0C0E01F
:100F6000D0E0CE15DF0504F380E118C0C534A9F444
:100F70000091C4011091C501000F111FC0E0D0E025
:100F800008C0BE01600F711F4FEF80EAA4DF51DE81
:100F90002196CE15DF05ACF3E7CF81E1DF91CF914C
:100FA0001F910F91FF90EF9044CE8091C6019091D8
:100FB000C7012091C4013091C5018032910511F41F
:100FC000207F0EC08034910511F4207E09C0803846
:100FD000910511F4207C04C08115914009F420781A
:100FE000C90108955D9A40E0BC018CE474DF2FEFE5
:100FF00086E791E0215080409040E1F700C000007A
:101000005D980895CF92DF92EF92FF920F931F9316
:10101000CF93DF937B01CB0136DEC7DF8C01C0E0CD
:10102000D0E029C09EE3C92E91E0D92ECC0EDD1E62
:101030006091C4017091C501F601458180E44BDFE8
:1010400022966091C4017091C501F601468188E441
:1010500042DF2091C4013091C5012F5F3F4F309393
:10106000C5012093C401A1DF0817190721F0C801A9
:10107000B9DF9BDF8C01CE15DF05A4F280E1DF91A3
:10108000CF911F910F91FF90EF90DF90CF90089537
:101090000F931F93CF93DF93C091C401D091C501EB
:1010A000CC0FDD1F8C0108C060E870E0CE01AADF24
:1010B000C058DF4F0058110901381105A8F7B801D1
:1010C000CE01A0DF80E1DF91CF911F910F910895B4
:1010D000CF92DF92EF92FF920F931F93CF93DF9304
:1010E0006C018B01CB01CFDD5D9A33E4E32E31E05F
:1010F000F32EC0E0D0E012C0F70141917F01BE01A4
:101100006C0D7D1D80ECE7DEFFE722E382E0F1500D
:1011100020408040E1F700C000002196C017D107B1
:101120005CF35D9880E1DF91CF911F910F91FF906B
:10113000EF90DF90CF9008950F931F93CF93DF939D
:10114000C091C401D091C5012091C8013091C9015D
:101150002817390724F0CC0FDD1F8C0113C08091B4
:10116000C301982F9F5F9F778078892B8093C3015D
:1011700081E10FC060E870E0CE01AADFC058DF4F08
:101180000058110901381105A8F7B801CE01A0DFF8
:1011900080E1DF91CF911F910F910895CF93DF935D
:1011A0006BDDD82F80E0C82F67DDC80FD11D64DD4F
:1011B000863419F4CE016CDF04C08534A9F4CE0165
:1011C000BBDFC82F59DD803221F484E132DD8C2F62
:1011D0000CC08091C301982F9F5F9F778078892BE7
:1011E0008093C30185E101C081E1DF91CF9121CDE1
:1011F000CF93DF932091C30127FF02C05D9801C008
:101200005D9A2F7711F05C9801C05C9A97FDADC094
:101210008135910509F483C0E4F48134910509F422
:1012200053C054F48033910599F181339105B1F1A4
:10123000809709F088C07DC08534910509F44CC0C1
:101240008035910509F44CC08234910509F07BC0CA
:101250003FC08136910509F457C06CF4863591057D
:1012600009F45AC08036910509F44DC085359105C1
:1012700009F069C037C08437910509F44AC0853741
:10128000910509F453C08436910509F05CC03EC055
:101290008091C30180788093C3011BC0EDDC803254
:1012A00009F063C084E1C5DC81E4C3DC86E5C1DC10
:1012B00082E5BFDC80E2BDDC89E4BBDC83E5B9DC30
:1012C00080E5B7DC80E14EC0D7DCDF91CF9147CD20
:1012D0005BDDDF91CF9130CD85E090E0D4DCF9CFBC
:1012E000C3DDF7CFC9DCC82FD0E0D093C501C093D0
:1012F000C401C2DC382F20E02C0F3D1F3093C50104
:101300002093C401E6CFB8DCB7DCE3CFDF91CF9107
:1013100045CFDF91CF91E4CDDF91CF9198CD8091F2
:10132000C30180788093C301C9DCD3CFDF91CF9113
:101330006ACD8091C301982F9F5F9F778078892B1A
:101340008093C3010EC08091C301982F9F5F9F7748
:101350008078892B8093C3018FDC803211F482E185
:1013600001C085E1DF91CF9164CCDF91CF910895E9
:10137000FC01208120682F7B208308950F931F9309
:10138000FB01908196FF0FC0292F26952695269563
:101390002770DB01A20FB11D15962C912583977C38
:1013A00098609F7B03C097FF02C0907C90839081E0
:1013B0009695969596959770DF01A90FB11D159694
:1013C0008C93292F2F5F2770220F220F220F40812D
:1013D000477C422B4083282F207C342F37702038C5
:1013E00009F463C0203C09F045C0282F28732695D6
:1013F00026952695332349F0990F990F990F477C2D
:10140000492B406440839EEF01C090E0223098F465
:10141000908196FB222720F9892F869586958695BF
:10142000820F8770880F880F880F977C982B9F7B7F
:1014300090839FEF3FC0273059F4082F0F7010E0C2
:1014400020E030E0018312832383348325E00AC047
:10145000482F477050E060E070E04183528363831F
:101460007483215027708081887F822B8083992309
:1014700029F120C0032F10E00230110524F1395F5B
:101480003770487F432B408341815281638174814F
:1014900097E0440F551F661F771F9A95D1F7482B89
:1014A000418352836383748309C0313071F4982F70
:1014B0009F739F5F80818068808309C080818F7760
:1014C000808390E004C09DEFF5CF9CEFF3CF892F90
:1014D0001F910F9108950F931F93CF93DF93EB010B
:1014E0004DDF1816B4F409811A812B813C81A901C2
:1014F000662777272227332740275127622773271C
:101500004F3F5F4F6105710521F0888180688883B6
:101510008BEFDF91CF911F910F910895FA012CE18C
:1015200030E097E0AB01022E02C0569547950A9431
:10153000E2F7483028F0973059F4408396E008C02D
:1015400040839150411104C027503109923051F726
:10155000492F42500DC0DF01A40FB11D9B012F7711
:1015600033272C93660F672F661F770B71954150B9
:101570004111F1CF492F50E09A0163E0220F331F50
:101580006A95E1F7206C3F6F3081322B3083E40F96
:10159000F51F319781508F7380688083892F08955C
:1015A000CF92DF92EF92FF92CF93DF93EC01809185
:1015B000C30187FD83DB01DACC88DD88EE88FF88F4
:1015C00082E0C816D104E104F10420F0988D8A8DE0
:1015D000E98D09C0E0E088E090E0C12C32ECD32E28
:1015E000EE24E394F12CE150E23028F4F0E0E45CE6
:1015F000FE4FC08101C0C0E0923009F4C86087305E
:1016000031F0883031F0863029F4C26003C0C46004
:1016100001C0C6605B9A1092C9001092C800109277
:10162000CA00C11481EED806E104F10489F0C701B3
:10163000B601969587957795679560587B47814E5B
:101640009F4FA70196010E94A4132150310902C0A7
:1016500020E130E03093CD002093CC00C093CA004D
:10166000C11481EED806E104F10411F480E001C058
:1016700082E08093C80088E98093C9005B98DF917D
:10168000CF91FF90EF90DF90CF900895CF93DF93AD
:10169000EC0193D91E9B03C0888980FF02C05F982C
:1016A00006C05F9A1092CA018BB180638BB9DF913B
:1016B000CF910895BF92CF92DF92EF92FF920F9356
:1016C0001F93CF93DF937C018B01EA01D7D1B82E12
:1016D000811132C0209731F028813981021B130B10
:1016E000E20EF31EC12CD12C22C08091E80085FDB2
:1016F00014C08091E8008E778093E800209749F02D
:10170000888199818C0D9D1D9983888325E0B22E57
:1017100013C0B4D1882359F00EC0F70181917F0125
:101720008093F10001501109FFEFCF1ADF0A011574
:101730001105D9F601C0B82E8B2DDF91CF911F91E5
:101740000F91FF90EF90DF90CF90BF900895209180
:10175000F4013091F5012617370748F0611571053E
:1017600039F42091E8002E772093E80001C0B901F8
:101770009C0180E034C09091ED01992309F443C0AD
:10178000953009F442C09091E80093FD3AC09091E1
:10179000E80092FD30C09091E80090FF20C0809159
:1017A000F20090E0F901821B930B05C02191209378
:1017B000F100615071099F01280F391F61157105F2
:1017C00019F02830310590F381E02830310509F017
:1017D00080E09091E8009E779093E8009F0161156A
:1017E000710549F68111C7CF06C08091ED018823AC
:1017F00051F0853051F08091E80082FFF6CF80E013
:10180000089581E0089582E0089583E008956115C8
:10181000710529F42091E8002B772093E8009C01C2
:1018200021C08091ED01882381F1853041F18091C3
:10183000E80083FD26C08091E80082FFF2CFF90125
:1018400007C08091F10081939F016150710929F0D7
:101850009F018091F2008111F4CF8091E8008B7795
:101860008093E80061157105E1F68091E80080FD44
:101870000AC08091ED01882341F08530B1F783E003
:10188000089581E0089580E0089582E00895209110
:10189000F4013091F5012617370748F061157105FD
:1018A00039F42091E8002E772093E80001C0B901B7
:1018B0009C0180E035C09091ED01992309F444C06A
:1018C000953009F443C09091E80093FD3BC090919E
:1018D000E80092FD31C09091E80090FF21C0809116
:1018E000F20090E0F901821B930B06C02491209333
:1018F000F1003196615071099C012E0F3F1F611557
:10190000710519F02830310588F381E02830310560
:1019100009F080E09091E8009E779093E8009F01A5
:101920006115710541F68111C6CF06C08091ED01A8
:10193000882351F0853051F08091E80082FFF6CF86
:1019400080E0089581E0089582E0089583E008959D
:10195000982F2CC09093E900981739F07091EC0003
:101960002091ED005091F00003C0242F762F50E01D
:1019700021FD02C09F5F1AC03091EB003E7F309383
:10198000EB003091ED003D7F3093ED003091EB00A6
:1019900031603093EB007093EC002093ED00509396
:1019A000F0002091EE0027FDE5CF07C0953090F2C2
:1019B0008F708093E90081E0089580E008950F938F
:1019C0001F93CF93DF93062FEC0110E02EC0988178
:1019D000911103C01F5F259628C02C81E981FA81EF
:1019E0006B81892F8F70853010F080E021C022300C
:1019F00010F056E001C052E028E030E040E003C0C3
:101A00004F5F220F331F2E173F07D0F34295407FC1
:101A1000452B991F9927991F6295660F660F607C69
:101A2000692B96DF8111D6CFE0CF1013D0CF81E0A4
:101A3000DF91CF911F910F9108958091EE0187FD65
:101A400005C08091E80080FF0EC012C08091E800C0
:101A500082FD05C08091ED018111F8CF089580913C
:101A6000E8008B7708C08091ED018111EACF0895DD
:101A70008091E8008E778093E80008958091E400DB
:101A80009091E50045E62091EC0020FD1FC023C0A9
:101A90002091ED01222391F0253091F02091EB006F
:101AA00025FD10C02091E4003091E500281739078A
:101AB00051F34150C90139F784E0089582E0089557
:101AC00083E0089581E0089580E008952091E80082
:101AD00020FFDECFF9CF2091E80022FFD9CFF4CF4D
:101AE00041D043D08091D8008F778093D8008091E7
:101AF000D80080688093D8008091D8008F7D809333
:101B0000D80084E089BD86E089BD09B400FEFDCF20
:101B10001092ED011092E9011092EB011092EA018E
:101B200042E060E080E014DF8091E1008E7F8093EE
:101B3000E1008091E20081608093E2008091E20008
:101B400088608093E2008091E0008E7F8093E000C7
:101B50000895E3E6F0E080818E7F808381E08093CA
:101B6000EC01BECF1092E20008951092E1000895BA
:101B70001F920F920FB60F9211242F933F934F9302
:101B80005F936F937F938F939F93AF93BF93EF93E5
:101B9000FF938091E10082FF0BC08091E20082FF01
:101BA00007C08091E1008B7F8093E1000E94CF030A
:101BB0008091E10080FF18C08091E20080FF14C096
:101BC0008091E2008E7F8093E2008091E20080614C
:101BD0008093E2008091D80080628093D80019BC85
:101BE0001092ED010E9477038091E10084FF30C0E4
:101BF0008091E20084FF2CC084E089BD86E089BD2D
:101C000009B400FEFDCF8091D8008F7D8093D8006D
:101C10008091E1008F7E8093E1008091E2008F7ED1
:101C20008093E2008091E20081608093E2008091E5
:101C3000E901882311F084E007C08091E30087FF69
:101C400002C083E001C081E08093ED010E94760331
:101C50008091E10083FF27C08091E20083FF23C0D1
:101C60008091E100877F8093E10082E08093ED0125
:101C70001092E9018091E1008E7F8093E1008091D4
:101C8000E2008E7F8093E2008091E2008061809389
:101C9000E20042E060E080E05BDE8091F00088607E
:101CA0008093F000B8D1FF91EF91BF91AF919F91D8
:101CB0008F917F916F915F914F913F912F910F90F5
:101CC0000FBE0F901F9018951F920F920FB60F9294
:101CD00011242F933F934F935F936F937F938F9331
:101CE0009F93AF93BF93CF93EF93FF938091E900BE
:101CF0008F709091EC0090FF02C090E801C090E0DE
:101D0000C92FC82B1092E9008091F000877F809343
:101D1000F00078941CD01092E9008091F000886067
:101D20008093F000CF70C093E900FF91EF91CF91C5
:101D3000BF91AF919F918F917F916F915F914F91E3
:101D40003F912F910F900FBE0F901F9018951F93EA
:101D5000CF93DF93CDB7DEB7AC970FB6F894DEBF65
:101D60000FBECDBFEEEEF1E08091F100819321E056
:101D7000E63FF207C9F70E94C7038091E80083FF9E
:101D800032C18091EE019091EF01953009F487C046
:101D900038F49130B1F170F0933009F024C131C0C2
:101DA000983009F4F4C0993009F400C1963009F074
:101DB0001AC19BC0803821F0823809F014C108C0D4
:101DC0008091EA019091EB01992389F082600FC024
:101DD0008091F2019091F3018F7099278093E9002F
:101DE0008091EB0085FB882780F91092E9009091A3
:101DF000E800977F9093E8008093F1001092F10043
:101E0000D1C0882319F0823009F0EDC08F7121F024
:101E1000823009F0E8C00BC08091F001813009F0F8
:101E2000E2C0933009F080E08093EB012FC08091F5
:101E3000F00181112BC08091F2019091F3018F701C
:101E40009927009709F4CFC08093E9002091EB0017
:101E500020FF1CC02091EF01233021F48091EB0082
:101E6000806212C09091EB0090619093EB0021E0B2
:101E700030E001C0220F8A95EAF72093EA00109221
:101E8000EA008091EB0088608093EB001092E900FB
:101E90008091E800877F8093E800CFDDA4C08111A6
:101EA000A2C08091F0019091F1018F779927182FAE
:101EB0009091E3009078982B9093E3008091E80054
:101EC000877F8093E800B9DD8091E80080FFFCCF38
:101ED0008091E30080688093E300112311F083E098
:101EE00001C082E08093ED017EC08058823008F00E
:101EF0007AC08091F0019091F1018C3D23E092072E
:101F000071F583E08A838AE289834FB7F894DE0112
:101F1000139620E03EE051E2E32FF0E050935700AB
:101F2000E49120FF03C0E295EF703F5FEF708E2FCA
:101F300090E0EA3010F0C79601C0C0968D939D9353
:101F40002F5F243149F74FBF8091E800877F80934E
:101F5000E8006AE270E0CE010196F9DB12C0AE0142
:101F6000455D5F4F6091F2010E94DB030097D9F15C
:101F70002091E800277F2093E800BC018BA59CA559
:101F800086DC8091E8008B778093E8002CC0803855
:101F900051F58091E800877F8093E8008091E90106
:101FA0008093F1008091E8008E7775CF81111BC07E
:101FB0009091F0019230B8F48091E800877F80938F
:101FC000E8009093E90139DD8091E901811104C0B5
:101FD0008091E30087FF02C084E001C081E080932C
:101FE000ED010E9478038091E80083FF0AC0809190
:101FF000E800877F8093E8008091EB008062809307
:10200000EB00AC960FB6F894DEBF0FBECDBFDF91EC
:10201000CF911F9108950895CF938091ED0188236A
:10202000A9F08091E9008F709091EC0090FF02C0C0
:1020300090E801C090E0C92FC82B1092E900809170
:10204000E80083FD84DECF70C093E900CF9108954E
:10205000CF93DF93EC014096FC018BE0DF011D92F2
:102060008A95E9F782E08C83898783E08E8761E037
:10207000CE010196A4DC882361F061E0CE010696D2
:102080009EDC882331F061E0CE010B96DF91CF9189
:1020900096CC80E0DF91CF910895CF93C62F209109
:1020A000ED012430F1F4FC01448955896689778972
:1020B000452B462B472BA9F081818F708093E90037
:1020C0008091E80085FF04C0C093F10080E00AC061
:1020D0008091E8008E778093E800D0DC8823A1F31C
:1020E00001C082E0CF9108952091ED01243029F5BF
:1020F000FC014489558966897789452B462B472BF6
:10210000E1F081818F708093E9008091F20081116C
:1021100002C080E008959091E8008091E8008E77F9
:102120008093E80095FDF5CFA9DC811107C090915F
:10213000E8009E779093E800089582E0089520914A
:10214000ED01243089F4FC01448955896689778939
:10215000452B462B472B41F021812F702093E9001E
:102160002091E80020FDC0CF08952091ED0124309A
:1021700019F02FEF3FEF24C0FC014489558966898F
:102180007789452B462B472BA1F386818F7080934F
:10219000E9008091E80082FFECCF8091F200882373
:1021A00021F02091F10030E002C02FEF3FEF80914D
:1021B000F200811105C08091E8008B778093E800E0
:1021C000C90108950895CF93DF93EC018091E80051
:1021D00083FFA7C0888190E02091F2013091F30144
:1021E0002817390709F09DC08091EF01813261F015
:1021F00020F4803209F095C03DC0823209F46DC0F0
:10220000833209F08EC07DC08091EE01813A09F0E1
:1022100088C08091E800877F8093E8008091E80083
:1022200080FFFCCF4C895D896E897F894093F100E6
:10223000BB27A72F962F852F8093F100CB01AA27CC
:10224000BB278093F100472F5527662777274093B8
:10225000F100888D8093F100898D8093F1008A8D43
:102260008093F1008091E8008E778093E800DF9101
:10227000CF91E3CB8091EE01813209F052C0809181
:10228000E800877F8093E80005C08091ED018823F6
:1022900009F447C08091E80082FFF7CF3091F10048
:1022A0002091F1009091F1008091F1003C8B2D8BF9
:1022B0009E8B8F8B8091F100888F8091F100898FA8
:1022C0008091F1008A8F8091E8008B778093E800FD
:1022D000B4DBCE01DF91CF9163C98091EE018132F1
:1022E00001F58091E800877F8093E800A6DB80916C
:1022F000F0019091F101998B888BCE01DF91CF9104
:10230000C5C98091EE01813261F48091E800877F38
:102310008093E80092DB6091F001CE01DF91CF91D4
:1023200051CFDF91CF9108956F927F928F929F92BC
:10233000AF92BF92CF92DF92EF92FF920F931F93D3
:10234000CF93DF9300D01F92CDB7DEB77C01ADB63F
:10235000BEB68091E80083FF07C1F701808190E05D
:102360002091F2013091F3012817390709F0FCC0E0
:102370008091EF01833009F49EC030F4813071F018
:10238000823009F0F1C0D4C08A3009F4B9C08B3072
:1023900009F4A2C0893009F0E7C04CC08091EE0179
:1023A000813A09F0E1C08DB69EB61A8219828091F9
:1023B000F0011091F1018B83F70140858DB79EB735
:1023C000841B91090FB6F8949EBF0FBE8DBFCDB68A
:1023D000DEB6EFEFCE1ADE0A360150E060E070E0C4
:1023E000C601EAD1412F41508E010F5F1F4F960168
:1023F000BE016D5F7F4FC7010E94EE04F701268189
:1024000037812115310529F0408550E0B601C90119
:10241000CAD11092E9008091E800877F8093E8009C
:1024200069817A81C30193D98091E8008B77809389
:10243000E80039C08091EE01813209F095C08DB677
:102440009EB60091F4011091F5017090F00160903A
:10245000F1018DB79EB7801B910B0FB6F8949EBF0C
:102460000FBE8DBFCDB6DEB6EFEFCE1ADE0A80917D
:10247000E800877F8093E800B801C601C8D9809141
:10248000E8008E778093E80021E0711001C020E021
:1024900030E0021B130B2C0D3D1D462D4150672DC6
:1024A000C7010E946E04882D992D0FB6F8949EBF27
:1024B0000FBE8DBF59C08091EE01813A09F054C022
:1024C0008091E800877F8093E8008091E80080FF9A
:1024D000FCCFF701818540C08091EE01813209F087
:1024E00043C08091E800877F8093E800A6DA90914E
:1024F000F00181E0911101C080E0F701818734C0D3
:102500008091EE01813281F58091E800877F809390
:10251000E80093DA8091F0019091F101882736E08C
:10252000969587953A95E1F7F701958784871CC0C2
:102530008091EE01813AC1F48091E800877F809319
:10254000E8008091E80080FFFCCFF7018485958545
:1025500096958795969587958093F1008091E800F0
:102560008E778093E80069DA0FB6F894BEBE0FBE8E
:10257000ADBE0F900F900F90DF91CF911F910F91F3
:10258000FF90EF90DF90CF90BF90AF909F908F9093
:102590007F906F9008959C01275F3F4FF90127E0DE
:1025A000DF011D922A95E9F721E0FC01218724EF44
:1025B00031E03587248723E0248361E00196FFC959
:1025C0004F925F926F927F928F929F92AF92BF9243
:1025D000CF92DF92EF92FF920F931F93CF93DF93EF
:1025E00000D01F92CDB7DEB77C01ADB6BEB68091EC
:1025F000ED01843009F08FC08091E4009091E500F6
:10260000F701228533852817390709F484C08181B1
:102610008F708093E9008091E80085FF7CC06DB6E3
:102620007EB640858DB79EB7841B91090FB6F8948E
:102630009EBF0FBE8DBFCDB6DEB6EFEFCE1ADE0A5F
:102640001B821A821982460150E060E070E0C601E8
:10265000B3D08E010F5F1F4F960140E0BE016D5F4A
:102660007F4FC7010E94EE04582EF701848595859F
:10267000892B31F001E010E086859785892B11F0D8
:1026800000E010E0F701C680D780C114D10489F0C2
:1026900049815A81B601C40179D0442443940097FA
:1026A00009F4412CF701408550E0B401C6017BD00C
:1026B00001C0412C89819A81892BF9F0511004C005
:1026C000411002C000FF19C0F701848595859787E6
:1026D000868781818F708093E9008B81811180933F
:1026E000F10069817A8140E050E0C4010E945A0BF8
:1026F0008091E8008E778093E8008091E4009091CB
:10270000E500F70193878287862D972D0FB6F89401
:102710009EBF0FBE8DBF0FB6F894BEBE0FBEADBE3E
:102720000F900F900F90DF91CF911F910F91FF901D
:10273000EF90DF90CF90BF90AF909F908F907F9061
:102740006F905F904F900895A1E21A2EAA1BBB1BB9
:10275000FD010DC0AA1FBB1FEE1FFF1FA217B3076D
:10276000E407F50720F0A21BB30BE40BF50B661F83
:10277000771F881F991F1A9469F760957095809547
:1027800090959B01AC01BD01CF010895FB01DC01D7
:1027900004C08D910190801921F441505040C8F738
:1027A000881B990B0895FB01DC0102C001900D927A
:1027B00041505040D8F70895DC0101C06D9341505D
:0A27C0005040E0F70895F894FFCFB1
:1027CA0002811000000100000F000000000000005C
:1027DA00008340000001044000000182080000015B
:1027EA00000000000000000000000004080F0801BB
:0E27FA000F0F0F0F000000000000030330203F
:00000001FF
