:1000000073C100008DC100008BC1000089C10000D8
:1000100087C1000085C1000083C1000081C10000CC
:100020007FC100007DC100007BC100000C948508E9
:100030000C942E0975C1000073C1000071C100004D
:100040006FC100006DC100006BC1000069C10000FC
:1000500067C1000065C1000063C10000C4C30000A7
:100060005FC100005DC100005BC1000059C100001C
:1000700057C1000030034100720064007500690040
:100080006E006F00200048006F006F0064006C007D
:100090006F0061006400650072002000420065008E
:1000A00074006100000012034E00690063006F00DD
:1000B00048006F006F006400000004030904090297
:1000C0005F00030100C032080B00020202010009B8
:1000D00004000001020201000524001001042402B2
:1000E000060524060001070582030800FF09040134
:1000F00000020A0000000705040240000107058312
:10010000024000010904020001030000000921115E
:1001100001000122B801070581032000011201102E
:1001200001EF020108EB03684E11000102DC01053A
:10013000010902A1010901A100850105091901298F
:10014000051500250195057501810295017503814D
:100150000305010930093109381581257F75089596
:10016000038106C0C005010906A101850205071922
:10017000E029E715002501750195088102950175B3
:1001800008810395067508150025650507190029DE
:1001900065810005081901290595057501910295EC
:1001A0000175039103C006C0FF0A000CA10185037D
:1001B0007508150026FF0095400901810295400948
:1001C000029102C0050C0901A1018504150026FF5A
:1001D000FF19002AFFFF950475108100C005010971
:1001E00080A1018505150026FF00190029FF950152
:1001F00075088100C005010905A1018506050919D9
:10020000012920150025017501952081020501A114
:10021000000930093109320933093409351500273D
:10022000FFFF0000751095068102C005010939091C
:100230003915012508950275048102C005010905DB
:10024000A10185070509190129201500250175015E
:10025000952081020501A1000930093109320933D5
:1002600009340935150027FFFF0000751095068138
:1002700002C0093909391501250895027504810262
:10028000C005010904A1018508A10005091901297A
:100290000215002501750195028102050109300949
:1002A00031150026FF03750A95028102750295013A
:1002B0008103C0C005010904A1018509A100050948
:1002C0001901290215002501750195028102050118
:1002D00009300931150026FF03750A950281027560
:1002E0000295018103C0C00011241FBECFEFD2E0F0
:1002F000DEBFCDBF11E0A0E0B1E0ECE5FDE102C062
:1003000005900D92AE32B107D9F712E0AEE2B1E03E
:1003100001C01D92A738B107E1F70CD10C94AC0EC7
:100320006FCECF93DF9384B7877F84BF28E10FB66A
:10033000F89420936000109260000FBE80E190E07E
:100340009093CD008093CC00CAECD0E096E09883E7
:10035000A8ECB0E082E08C93E9ECF0E02083539AC3
:100360005A9A5B9A10821C92188298838C9388E91F
:1003700080835B988AB180638AB98BB180638BB9C3
:10038000B5D684E085BD5F9A579A22982A9ADF9164
:10039000CF9108950F931F93CF93DF93C9E6D2E0D7
:1003A000082F10E00AC08091200180FF05C06881FD
:1003B00080E191E00E94140B2196CE018956924073
:1003C0008017910784F3DF91CF911F910F910895CA
:1003D000CF93DF9380913D02882319F010923B0266
:1003E0001DC060913B0270E0716081E01CD4C2E6E8
:1003F000D2E00AC08091200180FF05C0688180E1C1
:1004000091E00E94140B21969E0122563240809169
:10041000610290E0281739076CF3E0CFDF91CF91AC
:1004200008951F93CF93DF938BD3882309F47EC065
:100430001A9B7CC0A7D2813009F03BC0B2D280FFAA
:1004400038C080913B028111C3DFA8D280933B0268
:1004500010923D0291E1EFE3F2E0DF01292F1D92BE
:100460002A95E9F78530A9F038F4823081F084309C
:1004700071F08130C9F405C0883088F08A30A0F46A
:1004800011C094E090933C0280933E020EC088E03D
:1004900001C081E080933C0210923E0206C090931E
:1004A0003C02FACF83E0F6CF93DFDF91CF911F912B
:1004B00065C280913B028823C9F164D210913D024C
:1004C000C12FD0E090E09E012E5F3F4F35952795DC
:1004D0002F5F3F4F8217930729F560D2C15CDD4F34
:1004E0008883C12FCF5FC0933D0280913C028C175F
:1004F00049F057D2EC2FF0E0E15CFD4F80831E5FA6
:1005000010933D0290913C0280913D029813CDCF13
:1005100004C080E091E00E94A90D80913B0281110E
:10052000F8CFC3CFDF91CF911F9152CFDF91CF9101
:100530001F910895F6DE2FB7F89481E391E0909330
:10054000B2018093B1019093B4018093B3012FBFA6
:100550002FB7F89486EB91E09093370280933602A0
:1005600090933902809338022FBF789410923D0205
:1005700010923B02239A219AC1E3D1E08C0153E00F
:10058000E52E9FB7F8948091B5019FBF803819F18F
:1005900080E191E00E947C0B97FD1DC0E091B101CC
:1005A000F091B20180838091B1019091B2010196E6
:1005B0009093B2018093B101815B914021F4D0937B
:1005C000B201C093B1019FB7F8948091B5018F5FDC
:1005D0008093B5019FBF8FB7F894F0903A028FBF18
:1005E000A89904C080E68F1508F056C0A89A80919B
:1005F0003A02882341F15D98E0922E0124C0D4D1C3
:10060000877F39F080913B028111E2DE80916802A0
:10061000C1DEE0913802F09139028191F093390204
:10062000E0933802E653F24021F41093390200932C
:1006300038022FB7F89490913A02915090933A0271
:100640002FBFEFDEFA94F110DACF80912E018823CC
:10065000B9F080912E01815080932E01811110C03C
:1006600080913B028111B4DE9FD183FD07C0F090E1
:1006700068029AD187FDF3948F2D8CDE7FD15D9A2D
:1006800080912F01882341F080912F018150809328
:100690002F01811101C05C9A9FB7F8948091B50138
:1006A0009FBF882309F1E091B301F091B4019191CA
:1006B000F093B401E093B301E15BF14021F4D093F6
:1006C000B401C093B3012FB7F8948091B501815064
:1006D0008093B5012FBF8091C80085FFFCCF909318
:1006E000CE005C98E0922F0180E191E0EFD75BD7DC
:1006F00048CF08950895CF9380E091E00E94940D33
:10070000C82F80E191E06BD79091E20094609093C4
:10071000E200882321F0CC2311F080E001C080E3C7
:100720009BB18095906389238BB9CF9108951F93D6
:10073000CF93DF93EC01E98DE150E23028F4F0E053
:10074000E45DFE4F108101C010E0888D823009F415
:1007500018608A8D873031F0883031F0863029F486
:10076000126003C0146001C016605B9A1092C90049
:100770001092C8001092CA002C893D894E895F8969
:10078000211581EE38074105510579F0CA01B901FB
:10079000969587957795679560587B47814E9F4FD3
:1007A0000E946D0E2150310902C020E130E03093EB
:1007B000CD002093CC001093CA008C899D89AE890E
:1007C000BF898115914EA105B10511F480E001C0EA
:1007D00082E08093C80088E98093C9005B98DF912C
:1007E000CF911F9108951F920F920FB60F9211246F
:1007F0002F938F939F93EF93FF938091CE009091CF
:100800007E029430F1F4E0913602F0913702808359
:10081000E0913602F0913702CF01019690933702B2
:10082000809336028653924021F486EB91E09283C6
:1008300081839FB7F89480913A028F5F80933A0248
:100840009FBFFF91EF919F918F912F910F900FBEBE
:100850000F901F901895FC01208920FF02C05F981F
:1008600008955F9A8BB180638BB9089580E191E020
:1008700071D780E091E00C945D0C80910E01909115
:100880000F01009729F0019790930F0180930E01BB
:100890000895EF92FF920F931F93CF93DF937B0105
:1008A000C901E80110913C02EFE3F2E0412F50E072
:1008B000BF010E949C0EEBE3F2E08081D7018C9394
:1008C00018831982108280913E02DF91CF911F918F
:1008D0000F91FF90EF9008950895292F332723302B
:1008E0003105B1F04CF42130310509F439C0223022
:1008F000310509F03AC007C02132310539F1223201
:10090000310549F132C0EFE5F0E08EEB90E031C007
:1009100099278130910561F08230910581F0892B12
:1009200021F5EAEBF0E0E491F0E08AEB90E021C001
:10093000E6EAF0E0E491F0E086EA90E01AC0E4E74D
:10094000F0E0E491F0E084E790E013C0E9E0F0E04B
:100950008DE091E00EC0E8EBF1E08FE291E009C09C
:10096000E2E1F0E08DE191E004C0E0E0F0E080E061
:1009700090E0DA018D939C93CF01089588E08093F5
:100980002B01089580917002089560917102709119
:1009900072028091730290917402089580917102A5
:1009A000089580917202089580912B010895982FE7
:1009B00080912B018823E9F083FF0AC01092750211
:1009C00010927602109277021092780210927902B9
:1009D00087FF0DC040916802E42FF0E0E759FD4F1A
:1009E00080818093690281E08093680202C0109246
:1009F000680210926F0210927002109271021092AF
:100A00007202109273021092740210922B012091C4
:100A10006802E22FF0E0E759FD4F9083822F8F5F4D
:100A200080936802392F307C80917502303809F448
:100A300040C0303C09F05EC0882329F080E98093F3
:100A40002B0120936802292F287326952695269539
:100A5000223018F02730E1F40AC09F709F5F909316
:100A60006F021092750280912B0185603DC0492F65
:100A70004F7050E060E070E0409376025093770250
:100A8000609378027093790285E08093750256C076
:100A9000892F877090E0A0E0B0E080937602909379
:100AA0007702A0937802B0937902215020937502C7
:100AB00045C0282F2150209375028130C9F49F73BF
:100AC0009F5F909370028091760290917702A0913F
:100AD0007802B09179028093710290937202A09390
:100AE0007302B093740283E080932B0181E0089538
:100AF00080E507C0282F215020937502823030F402
:100B000080E380932B011092750218C04091760209
:100B100050917702609178027091790287E0440FDA
:100B2000551F661F771F8A95D1F7492B4093760290
:100B300050937702609378027093790280E0089571
:100B40000F931F9334DF8823A9F01CDF882391F0D3
:100B50001CDF8C0122273327DC01CB01AA27BB270E
:100B6000082719272A273B2781E00F3F1F4F210520
:100B7000310509F080E01F910F9108950F931F93A5
:100B8000A0916202ECE1F0E097E08A019B010E2E59
:100B900004C036952795179507950A94D2F7083023
:100BA00040F0A0936202973059F40093620296E0FD
:100BB00007C091503797A02F923039F70093620207
:100BC000A92FA25013C0EA2FF0E0EE59FD4F8A0181
:100BD0009B010F771127222733270083E7E07695C3
:100BE000679557954795EA95D1F7A150A111EBCF9D
:100BF000492F50E09A0163E0220F331F6A95E1F715
:100C0000206C3F6F30916202322B30936202FA0106
:100C1000EF59FD4F81508F738068808390936102FC
:100C20001F910F9108950F931F938B01AB01409576
:100C3000509560E070E0BA015527442720E030E08D
:100C4000402B512B622B732B1F910F9197CFBF928B
:100C5000CF92DF92EF92FF920F931F93CF93DF9388
:100C60007C018B01EA01D7D1B82E811132C02097C7
:100C700031F028813981021B130BE20EF31EC12CC7
:100C8000D12C22C08091E80085FD14C08091E8003D
:100C90008E778093E800209749F0888199818C0DA8
:100CA0009D1D9983888325E0B22E13C0B4D188237B
:100CB00059F00EC0F70181917F018093F10001503E
:100CC0001109FFEFCF1ADF0A01151105D9F601C08E
:100CD000B82E8B2DDF91CF911F910F91FF90EF9048
:100CE000DF90CF90BF9008952091850230918602C9
:100CF0002617370748F06115710539F42091E8008F
:100D00002E772093E80001C0B9019C0180E034C037
:100D100090917E02992309F443C0953009F442C0B2
:100D20009091E80093FD3AC09091E80092FD30C0A8
:100D30009091E80090FF20C08091F20090E0F901CE
:100D4000821B930B05C021912093F1006150710922
:100D50009F01280F391F6115710519F028303105E1
:100D600090F381E02830310509F080E09091E800AF
:100D70009E779093E8009F016115710549F68111F6
:100D8000C7CF06C080917E02882351F0853051F094
:100D90008091E80082FFF6CF80E0089581E0089519
:100DA00082E0089583E008956115710529F420918A
:100DB000E8002B772093E8009C0121C080917E02FF
:100DC000882381F1853041F18091E80083FD26C0C0
:100DD0008091E80082FFF2CFF90107C08091F10015
:100DE00081939F016150710929F09F018091F20068
:100DF0008111F4CF8091E8008B778093E800611532
:100E00007105E1F68091E80080FD0AC080917E02C4
:100E1000882341F08530B1F783E0089581E008959B
:100E200080E0089582E00895209185023091860245
:100E30002617370748F06115710539F42091E8004D
:100E40002E772093E80001C0B9019C0180E035C0F5
:100E500090917E02992309F444C0953009F443C06F
:100E60009091E80093FD3BC09091E80092FD31C065
:100E70009091E80090FF21C08091F20090E0F9018C
:100E8000821B930B06C024912093F1003196615090
:100E900071099C012E0F3F1F6115710519F0283053
:100EA000310588F381E02830310509F080E0909128
:100EB000E8009E779093E8009F016115710541F667
:100EC0008111C6CF06C080917E02882351F0853003
:100ED00051F08091E80082FFF6CF80E0089581E034
:100EE000089582E0089583E00895982F2CC0909390
:100EF000E900981739F07091EC002091ED005091C5
:100F0000F00003C0242F762F50E021FD02C09F5F28
:100F10001AC03091EB003E7F3093EB003091ED0032
:100F20003D7F3093ED003091EB0031603093EB006A
:100F30007093EC002093ED005093F0002091EE00B0
:100F400027FDE5CF07C0953090F28F708093E900C0
:100F500081E0089580E008950F931F93CF93DF936E
:100F6000062FEC0110E02EC09881911103C01F5F85
:100F7000259628C02C81E981FA816B81892F8F7099
:100F8000853010F080E021C0223010F056E001C022
:100F900052E028E030E040E003C04F5F220F331FF3
:100FA0002E173F07D0F34295407F452B991F992775
:100FB000991F6295660F660F607C692B96DF811121
:100FC000D6CFE0CF1013D0CF81E0DF91CF911F912A
:100FD0000F91089580917F0287FD05C08091E80000
:100FE00080FF0EC012C08091E80082FD05C0809194
:100FF0007E028111F8CF08958091E8008B7708C0B8
:1010000080917E028111EACF08958091E8008E7769
:101010008093E80008958091E4009091E50045E612
:101020002091EC0020FD1FC023C020917E022223CE
:1010300091F0253091F02091EB0025FD10C020911A
:10104000E4003091E5002817390751F34150C901F8
:1010500039F784E0089582E0089583E0089581E0FF
:10106000089580E008952091E80020FFDECFF9CFB9
:101070002091E80022FFD9CFF4CF41D043D0809116
:10108000D8008F778093D8008091D80080688093B3
:10109000D8008091D8008F7D8093D80084E089BDEE
:1010A00086E089BD09B400FEFDCF10927E02109249
:1010B0007A0210927C0210927B0242E060E080E0B3
:1010C00014DF8091E1008E7F8093E1008091E20047
:1010D00081608093E2008091E20088608093E2006A
:1010E0008091E0008E7F8093E0000895E3E6F0E0D9
:1010F00080818E7F808381E080937D02BECF1092BD
:10110000E20008951092E10008951F920F920FB629
:101110000F9211242F933F934F935F936F937F937D
:101120008F939F93AF93BF93EF93FF938091E100D1
:1011300082FF0AC08091E20082FF06C08091E10038
:101140008B7F8093E10099DB8091E10080FF17C0E5
:101150008091E20080FF13C08091E2008E7F809337
:10116000E2008091E20080618093E2008091D800EB
:1011700080628093D80019BC10927E02BBDA809105
:10118000E10084FF2FC08091E20084FF2BC084E047
:1011900089BD86E089BD09B400FEFDCF8091D800ED
:1011A0008F7D8093D8008091E1008F7E8093E10055
:1011B0008091E2008F7E8093E2008091E200816066
:1011C0008093E20080917A02882311F084E007C0C6
:1011D0008091E30087FF02C083E001C081E080933B
:1011E0007E0287DA8091E10083FF27C08091E200D0
:1011F00083FF23C08091E100877F8093E10082E03C
:1012000080937E0210927A028091E1008E7F80931B
:10121000E1008091E2008E7F8093E2008091E20005
:1012200080618093E20042E060E080E05EDE8091D9
:10123000F00088608093F000B5D1FF91EF91BF91ED
:10124000AF919F918F917F916F915F914F913F915E
:101250002F910F900FBE0F901F9018951F920F9215
:101260000FB60F9211242F933F934F935F936F9379
:101270007F938F939F93AF93BF93CF93EF93FF93FE
:101280008091E9008F709091EC0090FF02C090E88F
:1012900001C090E0C92FC82B1092E9008091F000A6
:1012A000877F8093F00078941CD01092E9008091A1
:1012B000F00088608093F000CF70C093E900FF9148
:1012C000EF91CF91BF91AF919F918F917F916F914E
:1012D0005F914F913F912F910F900FBE0F901F90F4
:1012E00018951F93CF93DF93CDB7DEB7AC970FB6AA
:1012F000F894DEBF0FBECDBFEFE7F2E08091F100C2
:10130000819322E0E738F207C9F7B0DA8091E8006C
:1013100083FF30C180917F0290918002953009F463
:1013200087C038F49130B1F170F0933009F022C1E8
:1013300031C0983009F4F3C0993009F4FFC09630F9
:1013400009F018C19BC0803821F0823809F012C121
:1013500008C080917B0290917C02992389F0826081
:101360000FC080918302909184028F70992780939F
:10137000E9008091EB0085FB882780F91092E90055
:101380009091E800977F9093E8008093F10010928D
:10139000F100D0C0882319F0823009F0EBC08F71C2
:1013A00021F0823009F0E6C00BC0809181028130CB
:1013B00009F0E0C0933009F080E080937C022FC0F8
:1013C0008091810281112BC08091830290918402CF
:1013D0008F709927009709F4CDC08093E900209180
:1013E000EB0020FF1CC020918002233021F480916B
:1013F000EB00806212C09091EB0090619093EB0043
:1014000021E030E001C0220F8A95EAF72093EA003C
:101410001092EA008091EB0088608093EB001092BC
:10142000E9008091E800877F8093E800D3DDA2C0C7
:101430008111A0C080918102909182028F779927BB
:10144000182F9091E3009078982B9093E30080916F
:10145000E800877F8093E800BDDD8091E80080FF91
:10146000FCCF8091E30080688093E300112311F0AA
:1014700083E001C082E080937E027CC0805882308D
:1014800008F078C080918102909182028C3D23E027
:10149000920771F583E08A838AE289834FB7F894D3
:1014A000DE01139620E03EE051E2E32FF0E050939E
:1014B0005700E49120FF03C0E295EF703F5FEF70AB
:1014C0008E2F90E0EA3010F0C79601C0C0968D9341
:1014D0009D932F5F243149F74FBF8091E800877FAC
:1014E0008093E8006AE270E0CE010196FDDB11C056
:1014F000AE01455D5F4F60918302EFD90097D1F156
:101500002091E800277F2093E800BC018BA59CA5D3
:101510008BDC8091E8008B778093E8002BC08038CB
:1015200049F58091E800877F8093E80080917A02F6
:101530008093F1008091E8008E7776CF81111AC0F8
:10154000909181029230B0F48091E800877F80937F
:10155000E80090937A023EDD80917A02811104C006
:101560008091E30087FF02C084E001C081E08093A6
:101570007E02C1D88091E80083FF0AC08091E80014
:10158000877F8093E8008091EB0080628093EB007E
:10159000AC960FB6F894DEBF0FBECDBFDF91CF91F2
:1015A0001F9108950895CF9380917E028823A9F01A
:1015B0008091E9008F709091EC0090FF02C090E85C
:1015C00001C090E0C92FC82B1092E9008091E8007B
:1015D00083FD87DECF70C093E900CF910895CF934C
:1015E000DF93EC014096FC018BE0DF011D928A95B0
:1015F000E9F782E08C83898783E08E8761E0CE0102
:101600000196AADC882361F061E0CE010696A4DC95
:10161000882331F061E0CE010B96DF91CF919CCC15
:1016200080E0DF91CF910895CF93C62F20917E0265
:101630002430F1F4FC014489558966897789452B6A
:10164000462B472BA9F081818F708093E900809110
:10165000E80085FF04C0C093F10080E00AC08091DB
:10166000E8008E778093E800D6DC8823A1F301C0E0
:1016700082E0CF91089520917E02243029F5FC016B
:101680004489558966897789452B462B472BE1F09C
:1016900081818F708093E9008091F200811102C0F6
:1016A00080E008959091E8008091E8008E77809323
:1016B000E80095FDF5CFAFDC811107C09091E800FF
:1016C0009E779093E800089582E0089520917E022D
:1016D000243089F4FC014489558966897789452B32
:1016E000462B472B41F021812F702093E900209158
:1016F000E80020FDC0CF089520917E02243019F02B
:101700002FEF3FEF24C0FC01448955896689778912
:10171000452B462B472BA1F386818F708093E900E0
:101720008091E80082FFECCF8091F200882321F0C5
:101730002091F10030E002C02FEF3FEF8091F200E6
:10174000811105C08091E8008B778093E800C90182
:1017500008950895CF93DF93EC018091E80083FF13
:10176000A9C0888190E020918302309184022817DB
:10177000390709F09FC080918002813261F020F426
:10178000803209F097C03DC0823209F46EC08332C6
:1017900009F090C07FC080917F02813A09F08AC031
:1017A0008091E800877F8093E8008091E80080FFC7
:1017B000FCCF4C895D896E897F894093F100BB27FE
:1017C000A72F962F852F8093F100CB01AA27BB2747
:1017D0008093F100472F5527662777274093F10024
:1017E000888D8093F100898D8093F1008A8D80939C
:1017F000F1008091E8008E778093E800DF91CF912F
:10180000E9CB80917F02813209F054C08091E800D9
:10181000877F8093E80005C080917E02882309F4C9
:1018200049C08091E80082FFF7CF3091F10020910C
:10183000F1009091F1008091F1003C8B2D8B9E8BFB
:101840008F8B8091F100888F8091F100898F80913A
:10185000F1008A8F8091E8008B778093E800BADBF3
:10186000CE01DF91CF910C94970380917F0281325A
:1018700009F58091E800877F8093E800ABDB8091D9
:10188000810290918202998B888BCE01DF91CF915A
:101890000C942B0480917F02813261F48091E800E6
:1018A000877F8093E80096DB60918102CE01DF9113
:1018B000CF914FCFDF91CF9108956F927F928F920A
:1018C0009F92AF92BF92CF92DF92EF92FF920F93CF
:1018D0001F93CF93DF9300D01F92CDB7DEB77C016B
:1018E000ADB6BEB68091E80083FF07C1F7018081E5
:1018F00090E020918302309184022817390709F083
:10190000FCC080918002833009F49EC030F48130A5
:1019100071F0823009F0F1C0D4C08A3009F4B9C046
:101920008B3009F4A2C0893009F0E7C04CC0809127
:101930007F02813A09F0E1C08DB69EB61A82198203
:1019400080918102109182028B83F70140858DB7CF
:101950009EB7841B91090FB6F8949EBF0FBE8DBF32
:10196000CDB6DEB6EFEFCE1ADE0A360150E060E00B
:1019700070E0C601EAD1412F41508E010F5F1F4F29
:101980009601BE016D5F7F4FC7010E944904F701B8
:10199000268137812115310529F0408550E0B601B7
:1019A000C901CAD11092E9008091E800877F809335
:1019B000E80069817A81C30197D98091E8008B772B
:1019C0008093E80039C080917F02813209F095C090
:1019D0008DB69EB6009185021091860270908102AC
:1019E000609082028DB79EB7801B910B0FB6F89462
:1019F0009EBF0FBE8DBFCDB6DEB6EFEFCE1ADE0AAC
:101A00008091E800877F8093E800B801C601CCD9B7
:101A10008091E8008E778093E80021E0711001C08A
:101A200020E030E0021B130B2C0D3D1D462D4150D4
:101A3000672DC7010E946C04882D992D0FB6F8946C
:101A40009EBF0FBE8DBF59C080917F02813A09F0C1
:101A500054C08091E800877F8093E8008091E8007F
:101A600080FFFCCFF701818540C080917F028132E9
:101A700009F043C08091E800877F8093E800AADAEC
:101A80009091810281E0911101C080E0F70181878E
:101A900034C080917F02813281F58091E800877F98
:101AA0008093E80097DA80918102909182028827E2
:101AB00036E0969587953A95E1F7F7019587848703
:101AC0001CC080917F02813AC1F48091E800877F39
:101AD0008093E8008091E80080FFFCCFF7018485C7
:101AE000958596958795969587958093F100809139
:101AF000E8008E778093E8006DDA0FB6F894BEBEEA
:101B00000FBEADBE0F900F900F90DF91CF911F9140
:101B10000F91FF90EF90DF90CF90BF90AF909F908C
:101B20008F907F906F9008959C01275F3F4FF90140
:101B300027E0DF011D922A95E9F721E0FC012187CA
:101B400024EF31E03587248723E0248361E0019688
:101B500003CA4F925F926F927F928F929F92AF9241
:101B6000BF92CF92DF92EF92FF920F931F93CF938A
:101B7000DF9300D01F92CDB7DEB77C01ADB6BEB605
:101B800080917E02843009F08FC08091E4009091B2
:101B9000E500F701228533852817390709F484C049
:101BA00081818F708093E9008091E80085FF7CC07F
:101BB0006DB67EB640858DB79EB7841B91090FB672
:101BC000F8949EBF0FBE8DBFCDB6DEB6EFEFCE1A36
:101BD000DE0A1B821A821982460150E060E070E042
:101BE000C601B3D08E010F5F1F4F960140E0BE01CA
:101BF0006D5F7F4FC7010E944904582EF70184850D
:101C00009585892B31F001E010E086859785892B39
:101C100011F000E010E0F701C680D780C114D104B4
:101C200089F049815A81B601C40179D04424439492
:101C3000009709F4412CF701408550E0B401C6013A
:101C40007BD001C0412C89819A81892BF9F05110F8
:101C500004C0411002C000FF19C0F70184859585BA
:101C60009787868781818F708093E9008B818111AE
:101C70008093F10069817A8140E050E0C4010E94C4
:101C800027068091E8008E778093E8008091E40039
:101C90009091E500F70193878287862D972D0FB6E7
:101CA000F8949EBF0FBE8DBF0FB6F894BEBE0FBE98
:101CB000ADBE0F900F900F90DF91CF911F910F91BC
:101CC000FF90EF90DF90CF90BF90AF909F908F905C
:101CD0007F906F905F904F900895A1E21A2EAA1BFB
:101CE000BB1BFD010DC0AA1FBB1FEE1FFF1FA217CC
:101CF000B307E407F50720F0A21BB30BE40BF50BC9
:101D0000661F771F881F991F1A9469F76095709551
:101D1000809590959B01AC01BD01CF010895FB0119
:101D2000DC0104C08D910190801921F44150504094
:101D3000C8F7881B990B0895FB01DC0102C00190D4
:101D40000D9241505040D8F70895DC0101C06D93C9
:0C1D500041505040E0F70895F894FFCF98
:101D5C000281200000015002110000000000000070
:101D6C0000834000000104400000018208000001D3
:0E1D7C00000000000000000000000008302001
:00000001FF
