:1000000073C100008DC100008BC1000089C10000D8
:1000100087C1000085C1000083C1000081C10000CC
:100020007FC100007DC100007BC100000C94AA08C4
:100030000C94530975C1000073C1000071C1000028
:100040006FC100006DC100006BC1000069C10000FC
:1000500067C1000065C1000063C10000ECC300007F
:100060005FC100005DC100005BC1000059C100001C
:1000700057C1000030034100720064007500690040
:100080006E006F00200048006F006F0064006C007D
:100090006F0061006400650072002000420065008E
:1000A00074006100000012034E00690063006F00DD
:1000B00048006F006F006400000004030904090297
:1000C0005F00030100C032080B00020202010009B8
:1000D00004000001020201000524001001042402B2
:1000E000060524060001070582030800FF09040134
:1000F00000020A0000000705040240000107058312
:10010000024000010904020001030000000921115E
:1001100001000122B801070581032000011201102E
:1001200001EF020108EB03684E13000102DC010538
:10013000010902A1010901A100850105091901298F
:10014000051500250195057501810295017503814D
:100150000305010930093109381581257F75089596
:10016000038106C0C005010906A101850205071922
:10017000E029E715002501750195088102950175B3
:1001800008810395067508150025650507190029DE
:1001900065810005081901290595057501910295EC
:1001A0000175039103C006C0FF0A000CA10185037D
:1001B0007508150026FF0095400901810295400948
:1001C000029102C0050C0901A1018504150026FF5A
:1001D000FF19002AFFFF950475108100C005010971
:1001E00080A1018505150026FF00190029FF950152
:1001F00075088100C005010905A1018506050919D9
:10020000012920150025017501952081020501A114
:10021000000930093109320933093409351500273D
:10022000FFFF0000751095068102C005010939091C
:100230003915012508950275048102C005010905DB
:10024000A10185070509190129201500250175015E
:10025000952081020501A1000930093109320933D5
:1002600009340935150027FFFF0000751095068138
:1002700002C0093909391501250895027504810262
:10028000C005010904A1018508A10005091901297A
:100290000215002501750195028102050109300949
:1002A00031150026FF03750A95028102750295013A
:1002B0008103C0C005010904A1018509A100050948
:1002C0001901290215002501750195028102050118
:1002D00009300931150026FF03750A950281027560
:1002E0000295018103C0C00011241FBECFEFD2E0F0
:1002F000DEBFCDBF11E0A0E0B1E0E6EAFDE102C063
:1003000005900D92AE32B107D9F712E0AEE2B1E03E
:1003100001C01D92AD34B107E1F736D10C94D10E76
:100320006FCECF93DF9384B7877F84BF28E10FB66A
:10033000F89420936000109260000FBE80E190E07E
:100340009093CD008093CC00CAECD0E096E09883E7
:10035000A8ECB0E082E08C93E9ECF0E02083539AC3
:100360005A9A5B9A10821C92188298838C9388E91F
:1003700080835B988AB180638AB98BB180638BB9C3
:10038000DAD684E085BD5F9A579A22982A9ADF913F
:10039000CF9108950F931F93CF93DF93CFE2D2E0D5
:1003A000082F10E00AC08091200180FF05C06881FD
:1003B00080E191E00E94390B2196CE018F5292404C
:1003C0008017910784F3DF91CF911F910F910895CA
:1003D000CF92DF92EF92FF920F931F93CF93DF9311
:1003E00000D000D000D0CDB7DEB780911C028111C3
:1003F00022C060911A0270E07160AE014F5F5F4FE2
:1004000081E034D48E010F5F1F4F6801E82EF12C7C
:100410000CC08091200180FF06C0F801608180E15E
:1004200091E00E94390B0F5F1F4FC8018C199D0985
:100430008E159F0574F310921A0210921C022696D4
:100440000FB6F894DEBF0FBECDBFDF91CF911F91E5
:100450000F91FF90EF90DF90CF9008951F93CF936F
:10046000DF9397D3882309F48BC01A9B89C08091AE
:10047000240190912501A0912601B09127018115B9
:1004800022EC920721E0A207B10529F0892B8A2BE3
:100490008B2B09F075C09FD28130A9F5ABD280FFBC
:1004A00032C080911A02811193DFA1D280931A0287
:1004B00010921C0291E1EDE1F2E0DF01292F1D9283
:1004C0002A95E9F7853099F038F4823061F084306C
:1004D00051F0813099F405C0883058F08A3070F4BA
:1004E0000BC084E001C088E080931B0208C081E05B
:1004F000FBCF90931B0203C083E0F6CF69DFDF914F
:10050000CF911F9164C280911A028823C9F163D2EE
:1005100010911C02C12FD0E090E09E012E5F3F4F52
:10052000359527952F5F3F4F8217930729F55FD2A7
:10053000C35EDD4F8883C12FCF5FC0931C028091C3
:100540001B028C1749F056D2EC2FF0E0E35EFD4F12
:1005500080831E5F10931C0290911B0280911C02ED
:100560009813CDCF04C080E091E00E94CE0D809121
:100570001A028111F8CFC3CFDF91CF911F9128CFFD
:10058000DF91CF911F910895CCDE2FB7F89480E3CF
:1005900091E09093A1018093A0019093A301809397
:1005A000A2012FBF2FB7F89485EA91E0909316022D
:1005B0008093150290931802809317022FBF7894AE
:1005C00010921C0210921A02C0E3D1E08C0153E099
:1005D000E52E9FB7F8948091A4019FBF803719F151
:1005E00080E191E00E94A10B97FD1DC0E091A00168
:1005F000F091A10180838091A0019091A1010196C9
:100600009093A1018093A001805A914021F4D0934E
:10061000A101C093A0019FB7F8948091A4018F5FBE
:100620008093A4019FBF8FB7F894F09019028FBFF9
:10063000A89904C080E58F1508F056C0A89A80914B
:100640001902882341F15D98E0922E0124C0D5D192
:10065000877F39F080911A028111BADE80912E02D3
:1006600099DEE0911702F09118028191F09318023F
:10067000E0931702E551F24021F410931802009321
:1006800017022FB7F8949091190291509093190284
:100690002FBFE4DEFA94F110DACF80912E01882387
:1006A000B9F080912E01815080932E01811110C0EC
:1006B00080911A0281118CDEA0D183FD07C0F090D9
:1006C0002E029BD187FDF3948F2D64DE80D15D9A3D
:1006D00080912F01882341F080912F0181508093D8
:1006E0002F01811101C05C9A9FB7F8948091A401F9
:1006F0009FBF882309F1E091A201F091A30191919C
:10070000F093A301E093A201E05AF14021F4D093C9
:10071000A301C093A2012FB7F8948091A401815046
:100720008093A4012FBF8091C80085FFFCCF9093D8
:10073000CE005C98E0922F0180E191E0ECD758D791
:1007400048CF08950895CF9380E091E00E94B90DBD
:10075000C82F80E191E068D79091E2009460909377
:10076000E200882321F0CC2311F080E001C080E377
:100770009BB18095906389238BB9CF9108951F9386
:10078000CF93DF93EC01E98DE150E23028F4F0E003
:10079000E45DFE4F108101C010E0888D823009F4C5
:1007A00018608A8D873031F0883031F0863029F436
:1007B000126003C0146001C016605B9A1092C900F9
:1007C0001092C8001092CA002C893D894E895F8919
:1007D000211581EE38074105510579F0CA01B901AB
:1007E000969587957795679560587B47814E9F4F83
:1007F0000E94920E2150310902C020E130E0309376
:10080000CD002093CC001093CA008C899D89AE89BD
:10081000BF898115914EA105B10511F480E001C099
:1008200082E08093C80088E98093C9005B98DF91DB
:10083000CF911F9108951F920F920FB60F9211241E
:100840002F938F939F93EF93FF938091CE0090917E
:1008500044029430F1F4E0911502F0911602808385
:10086000E0911502F0911602CF01019690931602C5
:10087000809315028551924021F485EA91E092839C
:1008800081839FB7F894809119028F5F809319023A
:100890009FBFFF91EF919F918F912F910F900FBE6E
:1008A0000F901F901895FC01208920FF02C05F98CF
:1008B00008955F9A8BB180638BB9089580E191E0D0
:1008C0006ED780E091E00C94820C80910E019091A3
:1008D0000F01009729F0019790930F0180930E016B
:1008E0000895EF92FF920F931F93CF93DF937B01B5
:1008F000C901E80110911B02EDE1F2E0412F50E047
:10090000BF010E94C10EEAE1F2E08081D7018C9321
:1009100018831982108210921C0281E0DF91CF911E
:100920001F910F91FF90EF9008950895292F33277D
:1009300023303105B1F04CF42130310509F439C0D0
:100940002230310509F03AC007C02132310539F1B2
:100950002232310549F132C0EFE5F0E08EEB90E054
:1009600031C099278130910561F08230910581F085
:10097000892B21F5EAEBF0E0E491F0E08AEB90E0DE
:1009800021C0E6EAF0E0E491F0E086EA90E01AC0E7
:10099000E4E7F0E0E491F0E084E790E013C0E9E000
:1009A000F0E08DE091E00EC0E8EBF1E08FE291E045
:1009B00009C0E2E1F0E08DE191E004C0E0E0F0E0A8
:1009C00080E090E0DA018D939C93CF01089588E058
:1009D00080932B010895809136020895609137022B
:1009E000709138028091390290913A020895809175
:1009F0003702089580913802089580912B0108955F
:100A0000982F80912B018823E9F083FF0AC0109270
:100A10003B0210923C0210923D0210923E02109254
:100A20003F0287FF0DC040912E02E42FF0E0E15D10
:100A3000FD4F808180932F0281E080932E0202C0BF
:100A400010922E0210923502109236021092370246
:100A5000109238021092390210923A0210922B0131
:100A600020912E02E22FF0E0E15DFD4F9083822F76
:100A70008F5F80932E02392F307C80913B0230387B
:100A800009F440C0303C09F05EC0882329F080E9B9
:100A900080932B0120932E02292F287326952695CB
:100AA0002695223018F02730E1F40AC09F709F5F2E
:100AB0009093350210923B0280912B0185603DC0DE
:100AC000492F4F7050E060E070E040933C0250933B
:100AD0003D0260933E0270933F0285E080933B02AB
:100AE00056C0892F877090E0A0E0B0E080933C0270
:100AF00090933D02A0933E02B0933F022150209379
:100B00003B0245C0282F215020933B028130C9F47D
:100B10009F739F5F9093360280913C0290913D02BB
:100B2000A0913E02B0913F02809337029093380229
:100B3000A0933902B0933A0283E080932B0181E0C5
:100B4000089580E507C0282F215020933B02823072
:100B500030F480E380932B0110923B0218C0409147
:100B60003C0250913D0260913E0270913F0287E04D
:100B7000440F551F661F771F8A95D1F7492B409365
:100B80003C0250933D0260933E0270933F0280E02E
:100B900008950F931F9334DF8823A9F01CDF882367
:100BA00091F01CDF8C0122273327DC01CB01AA271F
:100BB000BB27082719272A273B2781E00F3F1F4F14
:100BC0002105310509F080E01F910F9108950F93E1
:100BD0001F93CF93F901ACE1B0E097E08A019B014C
:100BE0000A2E04C036952795179507950A94D2F7D3
:100BF000083028F0973051F4008396E007C0008356
:100C00009150011103C01797923041F7C92FC2507C
:100C100012C0DF01AC0FB11D8A019B010F771127B4
:100C2000222733270C93A7E076956795579547952C
:100C3000AA95D1F7C150C111ECCF492F50E09A01CC
:100C400063E0220F331F6A95E1F7206C3F6F30811C
:100C5000322B3083E40FF51F319781508F738068FA
:100C60008083892FCF911F910F9108950F931F9328
:100C70008B01FA01AB014095509560E070E0BA013C
:100C80005527442720E030E0402B512B622B732B5B
:100C90009F011F910F919BCFBF92CF92DF92EF9256
:100CA000FF920F931F93CF93DF937C018B01EA0197
:100CB000D7D1B82E811132C0209731F028813981E7
:100CC000021B130BE20EF31EC12CD12C22C080910B
:100CD000E80085FD14C08091E8008E778093E800DD
:100CE000209749F0888199818C0D9D1D9983888377
:100CF00025E0B22E13C0B4D1882359F00EC0F701FD
:100D000081917F018093F10001501109FFEFCF1A0B
:100D1000DF0A01151105D9F601C0B82E8B2DDF9120
:100D2000CF911F910F91FF90EF90DF90CF90BF90E8
:100D3000089520914B0230914C022617370748F056
:100D40006115710539F42091E8002E772093E800B1
:100D500001C0B9019C0180E034C090914402992304
:100D600009F443C0953009F442C09091E80093FD26
:100D70003AC09091E80092FD30C09091E80090FF59
:100D800020C08091F20090E0F901821B930B05C016
:100D900021912093F100615071099F01280F391FA3
:100DA0006115710519F02830310590F381E0283084
:100DB000310509F080E09091E8009E779093E8007B
:100DC0009F016115710549F68111C7CF06C0809159
:100DD0004402882351F0853051F08091E80082FF71
:100DE000F6CF80E0089581E0089582E0089583E0E1
:100DF00008956115710529F42091E8002B7720935F
:100E0000E8009C0121C080914402882381F1853053
:100E100041F18091E80083FD26C08091E80082FFC7
:100E2000F2CFF90107C08091F10081939F016150D9
:100E3000710929F09F018091F2008111F4CF809116
:100E4000E8008B778093E80061157105E1F68091E9
:100E5000E80080FD0AC080914402882341F085307B
:100E6000B1F783E0089581E0089580E0089582E07D
:100E7000089520914B0230914C022617370748F015
:100E80006115710539F42091E8002E772093E80070
:100E900001C0B9019C0180E035C0909144029923C2
:100EA00009F444C0953009F443C09091E80093FDE3
:100EB0003BC09091E80092FD31C09091E80090FF16
:100EC00021C08091F20090E0F901821B930B06C0D3
:100ED00024912093F1003196615071099C012E0FED
:100EE0003F1F6115710519F02830310588F381E045
:100EF0002830310509F080E09091E8009E779093CA
:100F0000E8009F016115710541F68111C6CF06C049
:100F100080914402882351F0853051F08091E8009F
:100F200082FFF6CF80E0089581E0089582E0089581
:100F300083E00895982F2CC09093E900981739F01A
:100F40007091EC002091ED005091F00003C0242F2F
:100F5000762F50E021FD02C09F5F1AC03091EB0058
:100F60003E7F3093EB003091ED003D7F3093ED00FC
:100F70003091EB0031603093EB007093EC002093E4
:100F8000ED005093F0002091EE0027FDE5CF07C063
:100F9000953090F28F708093E90081E0089580E0B1
:100FA00008950F931F93CF93DF93062FEC0110E06A
:100FB0002EC09881911103C01F5F259628C02C81F7
:100FC000E981FA816B81892F8F70853010F080E084
:100FD00021C0223010F056E001C052E028E030E09D
:100FE00040E003C04F5F220F331F2E173F07D0F39F
:100FF0004295407F452B991F9927991F6295660F4F
:10100000660F607C692B96DF8111D6CFE0CF10137D
:10101000D0CF81E0DF91CF911F910F910895809102
:10102000450287FD05C08091E80080FF0EC012C018
:101030008091E80082FD05C0809144028111F8CFC3
:1010400008958091E8008B7708C080914402811157
:10105000EACF08958091E8008E778093E8000895A4
:101060008091E4009091E50045E62091EC0020FDA0
:101070001FC023C020914402222391F0253091F01B
:101080002091EB0025FD10C02091E4003091E50097
:101090002817390751F34150C90139F784E0089501
:1010A00082E0089583E0089581E0089580E0089546
:1010B0002091E80020FFDECFF9CF2091E80022FF49
:1010C000D9CFF4CF41D043D08091D8008F7780938F
:1010D000D8008091D80080688093D8008091D80093
:1010E0008F7D8093D80084E089BD86E089BD09B4F6
:1010F00000FEFDCF10924402109240021092420274
:101100001092410242E060E080E014DF8091E10053
:101110008E7F8093E1008091E20081608093E20005
:101120008091E20088608093E2008091E0008E7FF1
:101130008093E0000895E3E6F0E080818E7F808375
:1011400081E080934302BECF1092E2000895109296
:10115000E10008951F920F920FB60F9211242F9362
:101160003F934F935F936F937F938F939F93AF932F
:10117000BF93EF93FF938091E10082FF0AC08091BB
:10118000E20082FF06C08091E1008B7F8093E10046
:101190009CDB8091E10080FF17C08091E20080FF1E
:1011A00013C08091E2008E7F8093E2008091E20084
:1011B00080618093E2008091D80080628093D800A3
:1011C00019BC10924402BEDA8091E10084FF2FC066
:1011D0008091E20084FF2BC084E089BD86E089BD58
:1011E00009B400FEFDCF8091D8008F7D8093D80098
:1011F0008091E1008F7E8093E1008091E2008F7EFC
:101200008093E2008091E20081608093E20080910F
:101210004002882311F084E007C08091E30087FF3B
:1012200002C083E001C081E0809344028ADA8091A9
:10123000E10083FF27C08091E20083FF23C08091FB
:10124000E100877F8093E10082E080934402109266
:1012500040028091E1008E7F8093E1008091E20066
:101260008E7F8093E2008091E20080618093E200B3
:1012700042E060E080E05EDE8091F0008860809374
:10128000F000B5D1FF91EF91BF91AF919F918F91F8
:101290007F916F915F914F913F912F910F900FBE72
:1012A0000F901F9018951F920F920FB60F92112456
:1012B0002F933F934F935F936F937F938F939F935E
:1012C000AF93BF93CF93EF93FF938091E9008F701B
:1012D0009091EC0090FF02C090E801C090E0C92F0F
:1012E000C82B1092E9008091F000877F8093F00076
:1012F00078941CD01092E9008091F000886080936F
:10130000F000CF70C093E900FF91EF91CF91BF91B2
:10131000AF919F918F917F916F915F914F913F918D
:101320002F910F900FBE0F901F9018951F93CF9382
:10133000DF93CDB7DEB7AC970FB6F894DEBF0FBE24
:10134000CDBFE5E4F2E08091F100819322E0ED343D
:10135000F207C9F7B3DA8091E80083FF30C18091CA
:10136000450290914602953009F487C038F49130D7
:10137000B1F170F0933009F022C131C0983009F416
:10138000F3C0993009F4FFC0963009F018C19BC032
:10139000803821F0823809F012C108C080914102E2
:1013A00090914202992389F082600FC08091490296
:1013B00090914A028F7099278093E9008091EB0009
:1013C00085FB882780F91092E9009091E800977FCB
:1013D0009093E8008093F1001092F100D0C0882330
:1013E00019F0823009F0EBC08F7121F0823009F0E2
:1013F000E6C00BC080914702813009F0E0C0933015
:1014000009F080E0809342022FC080914702811151
:101410002BC08091490290914A028F7099270097C2
:1014200009F4CDC08093E9002091EB0020FF1CC09F
:1014300020914602233021F48091EB00806212C09B
:101440009091EB0090619093EB0021E030E001C0BF
:10145000220F8A95EAF72093EA001092EA00809121
:10146000EB0088608093EB001092E9008091E80027
:10147000877F8093E800D3DDA2C08111A0C0809156
:101480004702909148028F779927182F9091E30097
:101490009078982B9093E3008091E800877F809369
:1014A000E800BDDD8091E80080FFFCCF8091E30083
:1014B00080688093E300112311F083E001C082E093
:1014C000809344027CC08058823008F078C08091BC
:1014D0004702909148028C3D23E0920771F583E02A
:1014E0008A838AE289834FB7F894DE01139620E05D
:1014F0003EE051E2E32FF0E050935700E49120FFEB
:1015000003C0E295EF703F5FEF708E2F90E0EA30FE
:1015100010F0C79601C0C0968D939D932F5F243124
:1015200049F74FBF8091E800877F8093E8006AE227
:1015300070E0CE010196FDDB11C0AE01455D5F4F4D
:1015400060914902F3D90097D1F12091E800277FFB
:101550002093E800BC018BA59CA58BDC8091E80062
:101560008B778093E8002BC0803849F58091E800A4
:10157000877F8093E800809140028093F100809102
:10158000E8008E7776CF81111AC090914702923091
:10159000B0F48091E800877F8093E8009093400248
:1015A0003EDD80914002811104C08091E30087FFFD
:1015B00002C084E001C081E080934402C4D88091DD
:1015C000E80083FF0AC08091E800877F8093E800ED
:1015D0008091EB0080628093EB00AC960FB6F8949C
:1015E000DEBF0FBECDBFDF91CF911F91089508954B
:1015F000CF93809144028823A9F08091E9008F70F5
:101600009091EC0090FF02C090E801C090E0C92FDB
:10161000C82B1092E9008091E80083FD87DECF702F
:10162000C093E900CF910895CF93DF93EC014096EA
:10163000FC018BE0DF011D928A95E9F782E08C8343
:10164000898783E08E8761E0CE010196AADC88233A
:1016500061F061E0CE010696A4DC882331F061E000
:10166000CE010B96DF91CF919CCC80E0DF91CF91A2
:101670000895CF93C62F209144022430F1F4FC0149
:101680004489558966897789452B462B472BA9F0D4
:1016900081818F708093E9008091E80085FF04C00C
:1016A000C093F10080E00AC08091E8008E778093BB
:1016B000E800D6DC8823A1F301C082E0CF91089531
:1016C00020914402243029F5FC014489558966891A
:1016D0007789452B462B472BE1F081818F708093D2
:1016E000E9008091F200811102C080E0089590919C
:1016F000E8008091E8008E778093E80095FDF5CFB3
:10170000AFDC811107C09091E8009E779093E800CC
:10171000089582E0089520914402243089F4FC0168
:101720004489558966897789452B462B472B41F09B
:1017300021812F702093E9002091E80020FDC0CF87
:10174000089520914402243019F02FEF3FEF24C078
:10175000FC014489558966897789452B462B472B9F
:10176000A1F386818F708093E9008091E80082FF69
:10177000ECCF8091F200882321F02091F10030E03D
:1017800002C02FEF3FEF8091F200811105C08091E0
:10179000E8008B778093E800C90108950895CF93FE
:1017A000DF93EC018091E80083FFA9C0888190E07D
:1017B0002091490230914A022817390709F09FC049
:1017C00080914602813261F020F4803209F097C0A6
:1017D0003DC0823209F46EC0833209F090C07FC0F0
:1017E00080914502813A09F08AC08091E800877FA4
:1017F0008093E8008091E80080FFFCCF4C895D89F0
:101800006E897F894093F100BB27A72F962F852FE4
:101810008093F100CB01AA27BB278093F100472FCB
:101820005527662777274093F100888D8093F10034
:10183000898D8093F1008A8D8093F1008091E8007A
:101840008E778093E800DF91CF91E9CB80914502BC
:10185000813209F054C08091E800877F8093E800CE
:1018600005C080914402882309F449C08091E800B2
:1018700082FFF7CF3091F1002091F1009091F100BB
:101880008091F1003C8B2D8B9E8B8F8B8091F10092
:10189000888F8091F100898F8091F1008A8F8091EB
:1018A000E8008B778093E800BADBCE01DF91CF911F
:1018B0000C94BF0380914502813209F58091E800C4
:1018C000877F8093E800ABDB8091470290914802CC
:1018D000998B888BCE01DF91CF910C94530480912A
:1018E0004502813261F48091E800877F8093E800AF
:1018F00096DB60914702CE01DF91CF914FCFDF9110
:10190000CF9108956F927F928F929F92AF92BF92E4
:10191000CF92DF92EF92FF920F931F93CF93DF93BB
:1019200000D01F92CDB7DEB77C01ADB6BEB68091B8
:10193000E80083FF07C1F701808190E02091490210
:1019400030914A022817390709F0FCC080914602FD
:10195000833009F49EC030F4813071F0823009F098
:10196000F1C0D4C08A3009F4B9C08B3009F4A2C0E8
:10197000893009F0E7C04CC080914502813A09F0F6
:10198000E1C08DB69EB61A821982809147021091ED
:1019900048028B83F70140858DB79EB7841B910960
:1019A0000FB6F8949EBF0FBE8DBFCDB6DEB6EFEF7B
:1019B000CE1ADE0A360150E060E070E0C601EAD1DE
:1019C000412F41508E010F5F1F4F9601BE016D5F89
:1019D0007F4FC7010E947104F701268137812115CD
:1019E000310529F0408550E0B601C901CAD11092F5
:1019F000E9008091E800877F8093E80069817A811F
:101A0000C30197D98091E8008B778093E80039C0B3
:101A100080914502813209F095C08DB69EB6009145
:101A20004B0210914C0270904702609048028DB7B3
:101A30009EB7801B910B0FB6F8949EBF0FBE8DBF53
:101A4000CDB6DEB6EFEFCE1ADE0A8091E800877FD2
:101A50008093E800B801C601CCD98091E8008E7768
:101A60008093E80021E0711001C020E030E0021B0B
:101A7000130B2C0D3D1D462D4150672DC7010E94B3
:101A80009504882D992D0FB6F8949EBF0FBE8DBF7B
:101A900059C080914502813A09F054C08091E80014
:101AA000877F8093E8008091E80080FFFCCFF701FA
:101AB000818540C080914502813209F043C0809108
:101AC000E800877F8093E800AADA9091470281E0DE
:101AD000911101C080E0F701818734C080914502F7
:101AE000813281F58091E800877F8093E80097DA62
:101AF0008091470290914802882736E09695879515
:101B00003A95E1F7F701958784871CC080914502DB
:101B1000813AC1F48091E800877F8093E80080914A
:101B2000E80080FFFCCFF701848595859695879521
:101B3000969587958093F1008091E8008E77809349
:101B4000E8006DDA0FB6F894BEBE0FBEADBE0F90C2
:101B50000F900F90DF91CF911F910F91FF90EF9019
:101B6000DF90CF90BF90AF909F908F907F906F90BD
:101B700008959C01275F3F4FF90127E0DF011D9287
:101B80002A95E9F721E0FC01218724EF31E0358730
:101B9000248723E0248361E0019603CA4F925F9279
:101BA0006F927F928F929F92AF92BF92CF92DF926D
:101BB000EF92FF920F931F93CF93DF9300D01F926A
:101BC000CDB7DEB77C01ADB6BEB68091440284309D
:101BD00009F08FC08091E4009091E500F701228523
:101BE00033852817390709F484C081818F70809369
:101BF000E9008091E80085FF7CC06DB67EB6408527
:101C00008DB79EB7841B91090FB6F8949EBF0FBE87
:101C10008DBFCDB6DEB6EFEFCE1ADE0A1B821A827A
:101C20001982460150E060E070E0C601B3D08E0139
:101C30000F5F1F4F960140E0BE016D5F7F4FC701F0
:101C40000E947104582EF70184859585892B31F007
:101C500001E010E086859785892B11F000E010E007
:101C6000F701C680D780C114D10489F049815A8117
:101C7000B601C40179D044244394009709F4412C5F
:101C8000F701408550E0B401C6017BD001C0412C72
:101C900089819A81892BF9F0511004C0411002C04A
:101CA00000FF19C0F7018485958597878687818114
:101CB0008F708093E9008B8181118093F10069819D
:101CC0007A8140E050E0C4010E944C068091E80017
:101CD0008E778093E8008091E4009091E500F70111
:101CE00093878287862D972D0FB6F8949EBF0FBEDF
:101CF0008DBF0FB6F894BEBE0FBEADBE0F900F9055
:101D00000F90DF91CF911F910F91FF90EF90DF9097
:101D1000CF90BF90AF909F908F907F906F905F908B
:101D20004F900895A1E21A2EAA1BBB1BFD010DC006
:101D3000AA1FBB1FEE1FFF1FA217B307E407F5077B
:101D400020F0A21BB30BE40BF50B661F771F881F57
:101D5000991F1A9469F760957095809590959B01ED
:101D6000AC01BD01CF010895FB01DC0104C08D91E0
:101D70000190801921F441505040C8F7881B990BFD
:101D80000895FB01DC0102C001900D9241505040CA
:101D9000D8F70895DC0101C06D9341505040E0F741
:061DA0000895F894FFCF46
:101DA6000281200000010000110000000000000078
:101DB6000083400000010440000001820800000189
:0E1DC6000000000000000000000000083020B7
:00000001FF
